:020000040800F2
:10000000080700208D020008951C00088D1C0008C0
:10001000911C0008450F0008A91D00080000000001
:100020000000000000000000000000009D1C00080F
:10003000490F000800000000991C0008A11C0008DE
:10004000A7020008A7020008A7020008A7020008EC
:10005000A7020008A7020008A7020008A7020008DC
:10006000A7020008A7020008A7020008A7020008CC
:10007000A7020008A7020008A7020008A7020008BC
:10008000A7020008A7020008A7020008000000005D
:10009000000000000000000000000000A7020008AF
:1000A000A7020008A7020008A7020008A70200088C
:1000B000A7020008A7020008A7020008A70200087C
:1000C000A7020008A7020008A7020008A70200086C
:1000D000A7020008A7020008A7020008000000000D
:1000E000A7020008A7020008A702000800000000FD
:1000F000000000000000000000000000A70200084F
:1001000000000000A7020008A7020008A7020008DC
:1001100000000000000000000000000000000000DF
:10012000A7020008A7020008A7020008A70200080B
:10013000A70200080000000000000000000000000E
:10014000000000000000000000000000A7020008FE
:10015000A7020008A7020008A7020008A7020008DB
:10016000A7020008A702000800000000000000002D
:10017000000000000000000000000000000000007F
:1001800000000000A70200080000000000000000BE
:10019000A702000800F002F800F068F814A696E83C
:1001A000000CB244B344DA4501D100F05FF8BAE87C
:1001B0000F000FA696E83000A5EB040504EB060738
:1001C000AAEB0704A7F101074FEA15154FEA34140B
:1001D000A4F10104AC4201D300F048F813F0010F80
:1001E00018BFFB1A43F0010300F001F8DBE71847E2
:1001F0000C3400002C340000103A24BF78C878C1B9
:10020000FAD8520724BF30C830C144BF04680C601C
:1002100070470000704700000023002400250026DE
:10022000103A28BF78C1FBD8520728BF30C148BF59
:100230000B607047662903F0EE80752900F042815B
:10024000782900F07B81732900F001850020704738
:100250001FB503F0CEF800F0FFFC040000200021E1
:1002600002F0A2FDE0601FBD10B510BD00F0F4FD6E
:100270001146FFF7EDFF01F09BFD00F012FE03B405
:10028000FFF7F2FF03BC00F055FE0000094880476D
:1002900009480047FEE7FEE7FEE7FEE7FEE7FEE768
:1002A000FEE7FEE7FEE7FEE704480549054A064B80
:1002B00070470000A51C00089501000808010020F7
:1002C00008070020080300200803002053EA020C5E
:1002D00000F069802DE9F04B4FF00006002B1FBFA6
:1002E000B3FA83F503FA05F424FA05F65E4012BF6B
:1002F0001643B2FA82F502FA05F4C5F120051EBFD5
:1003000022FA05FC44EA0C04203556EA044C4FEA74
:10031000144418BF641C4FF000084FF000099042CD
:1003200071EB030C39D3002919BFB1FA81F701FA37
:1003300007F6B0FA80F700FA07F6C7F120071EBFEC
:1003400020FA07FC46EA0C062037B6FBF4FCA7EBC4
:100350000507103F07F01F0BCBF120062CFA06F61D
:100360000CFA0BFB44BFB3460026202FA4BF5E4609
:100370004FF0000B5BEA060C08BF4FF0010B19EBC6
:100380000B0948EB0608ABFB027C06FB02CC0BFB1F
:1003900003CCC01B71EB0C01C1E70B460246414682
:1003A0004846BDE8F08B13B5084318BF4FF0FF3047
:1003B0000146AFF30080BDE81C4070470FB41CB588
:1003C000074B06AA7B4469460090059800F00DFC97
:1003D0000020694600F01CFC1CBC5DF814FB00000A
:1003E000490800000FB41CB50C0007AA009007D004
:1003F0004142A14202D32044401E01E04FF0FF30B1
:10040000074B7B4469460190069800F0EEFB002004
:10041000002C01D0009908701CBC5DF814FB000092
:100420001508000070B5044685690068C10601D54D
:10043000302600E02026C00707D070BDD4E9012196
:1004400030469047206A401C20626D1EF6D570BD74
:1004500070B5044685690078C00707D170BDD4E93E
:10046000012120209047206A401C20626D1EF6D595
:1004700070BD70B50C460546012A05D02878800667
:1004800000D5EA69002302E0012305E05B1C9342EA
:1004900002D2E05C0028F9D1A869E618C01AA86168
:1004A000286A184428622846FFF7BCFF04E0D5E913
:1004B000012114F8010B9047B442F8D32846FFF706
:1004C000C7FF70BD2DE9F04106460024106875296C
:1004D000314616A510D0AFF30080002802DA404262
:1004E00013A507E031688A0701D512A502E0490784
:1004F00004D511A5012401E0AFF3008000210A22F8
:1005000006F1240709E0B0FBF2FCB0FBF2F302FBBA
:100510001C00303078541846491C0028F3D123467B
:100520002A463046BDE8F04100F0F2B80000000075
:100530002D0000002B0000002000000070B50446D4
:100540000D4621461068AFF300802188090502D5C9
:100550000F4A7A4402E00E4A7A440E32002104F136
:10056000240305E000F00F060009965D5E54491C67
:100570000028F7D120780023000704D5702D02D081
:1005800009B1022311322046BDE8704000F0C0B826
:10059000C42E00002DE9F05F894604464FF0000AA2
:1005A000DFF824B1FB44C0F820A02046E16888476A
:1005B00000287DD0252806D0D4E901219047206A63
:1005C000401C2062F1E700255F462046E16888472D
:1005D0002028064607DB312E05D2B81910F8200C6A
:1005E00008B10543F1E7A80701D525F00405C4F8D3
:1005F0001CA00027C4F818A02A2E09D0304602F00B
:10060000CBFB38B304EB8708303EC8F8186019E01C
:1006100059F8041B204604EB87029161E168884782
:10062000012F064618D1E069002820DA25F02005C0
:100630001DE0D8F8180000EB800006EB40003038D1
:10064000C8F818002046E1688847064602F0A4FB77
:100650000028EED1012F0AD02E2E08D12046E168C5
:1006600088477F1C0646022F45F02005C4DBA069A1
:10067000002803DA404245F00105A061E80701D0F7
:1006800025F01005A6B1A6F14100192802D82036A0
:1006900045F400654A463146204625604D46FFF741
:1006A000C9FD60B1012807D0ED1D25F0070000E06D
:1006B00007E000F1080978E705F1040975E730461D
:1006C0007AE7206ABDE8F09F9A2E000010B5431C1F
:1006D00002E010F8011B71B18107FAD14FF001322D
:1006E00002C88C1A8C4314EAC211F9D0C01A0A0647
:1006F00003D0C01E10BDC01A10BD0A0401D0801E58
:1007000010BD0902FCD0401E10BD704770477047F5
:100710002DE9F0470D4699469246044600F124081B
:100720000168880604D5E06921F01001216000E02D
:100730000120A84201DD471B00E00027A1697A19CA
:1007400002EB0900081AA0612078C00602D42046F6
:10075000FFF768FE002608E0D4E901211AF8060038
:100760009047206A401C761C20624E45F4DB2078BE
:10077000C0060AD52046FFF755FE06E0D4E9012160
:1007800030209047206A401C2062381EA7F10107E4
:10079000F4DC07E0D4E9012118F805009047206A4D
:1007A000401C2062281EA5F10105F3DC2046FFF75E
:1007B0004FFE2078000602D50220BDE8F087012018
:1007C000FBE72DE9FF4F0C461E464FF0FF378BB07D
:1007D000D2E90001DDF860800A908A46C1F30A552B
:1007E00005B93D46002108464FF00000BAF1000F60
:1007F00000F4400005DA00EB80004FF4400101EA0C
:1008000050004FEA9059B9F1010F00DDB9460A983E
:1008100050EA4A000ED044F61050A5F2FF35454389
:100820002F14B8F1000F1ED07542291E1EDDC9F12C
:1008300000021CE0B8F1010F4FF0000001D03021A0
:1008400003E0F24305E02154401CB042FBDB30469C
:100850000022002121540B99C1F80880C1E9002031
:100860000FB0BDE8F08FBD1B6D1CDEE74A4600DA15
:10087000694206A800F07AFA06AB93E8070003ABDA
:1008800083E8070050460A9901F0A6FE8DE80700AC
:10089000A0F500501F3800900398002D0ADD42F2A9
:1008A0001F014A460844002303A90390684602F04A
:1008B0000FF909E0A0F500504A461F38002303A9AC
:1008C0000390684602F019F98DE807000004000C57
:1008D00003D04FF0FF30410800E01046B8F1000FA0
:1008E00003D00022009215461EE0751E05D400F0CC
:1008F000B7F9303262556D1EF9D5B346012208436F
:1009000002D000227F1C04E02078302801D1002290
:100910007F1E002A099784D01DE0112D07DA00F010
:100920009FF9303262556D1C50EA0102F5D108433F
:1009300002D00098C8B10EE00021681E05E0235CDB
:10094000625C63542254401E491C8142F7DBAB4673
:10095000A81B401E0990002004F80B000B98099A70
:10096000C0F80880C0E9002B7AE711264FF0000894
:1009700057E72DE9F04F88460446D21D22F00701C3
:1009800091B0D1E90001CDE90A0102F0EDF902468A
:100990000B98C00F01D02D2007E02068810701D5FA
:1009A0002B2002E0202101EAC000032A099001D097
:1009B000072A05DB03464146204600F097F90BE184
:1009C0002078800601D5E06900E00620B8F1650FC7
:1009D000814606D0B8F1660F18D0B8F1670F70D114
:1009E00031E00020B9F1110F009001DB112301E08B
:1009F00009F101030AAA01A90CA8FFF7E2FEDDE94B
:100A00000C70002609F10105834647E001204B46A2
:100A100000904FF000470AAA01A90CA8FFF7D1FEE9
:100A2000DDE90DB00C995D46002610B909F1010011
:100A30000D18B9EB050003D4C0F1FF3609F101052B
:100A4000A5EB09002BE0B9F1010F01DA4FF0010924
:100A50000020B9F1110F0090484601DD112300E09C
:100A600003460AAA01A90CA8FFF7ABFEDDE90C704A
:100A70004D4600268346207800070AD4AB4500DAAD
:100A80005D4601A8012D04DD411911F8011C302932
:100A900007D04F4502DA17F1040F04DA012082462D
:100AA0000FE06D1EEEE7002F02DCED1B3E4403E07D
:100AB000781CA84200DD7D1CB81B00F1010A4FF034
:100AC00000472078000703D4AA4501DB4FF0FF3A26
:100AD0000021B7F1004F0DF143088DF8431024D0E9
:100AE00002202B23002F01DA7F422D230A21021E30
:100AF000A0F1010000DC5FB197FBF1FC97FBF1F284
:100B000001FB1C7C17460CF1300C08F801CDEEE718
:100B1000A8F1010003702188090501D5452100E0F5
:100B20006521A0F1010800F8011C09980FA9A1EBAB
:100B30000807FF1D00B10120411901EBEA70A1690E
:100B40003844081A401EA0612078C00602D420460E
:100B5000FFF768FC099828B1D4E901219047206A81
:100B6000401C20622078C00622D52046FFF75AFCA0
:100B70001EE0002E04DBB34502DD01A8805D00E02D
:100B80003020D4E901219047206A401C2062761C65
:100B9000AAF101005FEA000A0AD100F05DF8C0681E
:100BA0000168405CD4E901219047206A401C206222
:100BB000281EA5F10105DCDC07E0D4E9012118F8C5
:100BC000010B9047206A401C2062381EA7F10107E4
:100BD000F3DC2046FFF73CFC032011B041E60000A7
:100BE00001694A1C02610878704700B58FB0CDE9F1
:100BF00001310021059105497944CDE903101146E1
:100C00006846FFF7C7FC0FB000BD0000E5FFFFFF1F
:100C10000A6802F8010B0A607047D1E900239A4282
:100C200002D2531C0B601070704710B5436913B1AA
:100C3000AFF3008001E0FFF71CFC012010BD12782B
:100C400000F124010A7000224A700122EDE71168C8
:100C50004FF0FF32E9E70000004870473000002005
:100C600030B5B0F10A0271F100034FEA900E4EEA7E
:100C7000817EB0EB0E0061EB91014FEA101E4EEA4F
:100C8000017E10EB0E0041EB11114FEA102E4EEADF
:100C9000016E10EB0E0041EB11214FEA104E4EEAAF
:100CA000014E10EB0E0041EB1141401841F10001E3
:100CB0004FEAD00040EA41704FEAD1014FEA810487
:100CC00044EA907410EB800544EB01046D1944EB89
:100CD0000404521BA3414FF0000348BF0A3200D561
:100CE00030BD401C41F1000130BD00002DE9F04154
:100CF0001F46044603260168072A01F4006004DB4E
:100D000008B116A505E016A503E008B115A500E099
:100D100015A521F010002060A069C01EA0610FB1D0
:100D2000401EA0612046FFF77DFB4FB1D4E90121B1
:100D300038469047206A401C2062C01C206206E0B2
:100D4000206AFAE7D4E9012115F8010B9047761ED5
:100D5000F8D22046FFF77CFBBDE8F0814E414E0003
:100D60006E616E00494E4600696E66002DE9F047DF
:100D7000814616468AB0354878440DC88DE80D0086
:100D800032487844801C03AC0DC884E80D0041F65D
:100D90009B300844372190FBF1F290FBF1F5A5F16F
:100DA000800501FB12041B3C02D56442012000E0D7
:100DB0000020DFF898A080460027FA44AAF1BE0A76
:100DC0000EE0E0070AD03246684607EB47010123F0
:100DD0000AEB810101F091FE8DE8070064107F1C91
:100DE000002CEED1194F7F44AE3F19E0E80715D033
:100DF00007EB04100DF1180A90E80E008AE80E00C7
:100E0000C068F04201D1981908903246012306A922
:100E100003A801F072FE03AB83E807006D10641CA9
:100E2000002DE3D14FF0010332466946B8F1000FBF
:100E300003A802D001F04CFE01E001F05EFEC9E91A
:100E40000001C9F808200AB0BDE8F0875427000067
:100E500000487047100000207546FFF7F9FFAE46C6
:100E600005006946534620F00700854618B020B5B6
:100E7000FFF71AFABDE820404FF000064FF00007D8
:100E80004FF000084FF0000BAC46ACE8C009ACE8EE
:100E9000C009ACE8C009ACE8C00921F007018D46E3
:100EA000704710B50446AFF300802046BDE81040FF
:100EB000FFF7E5B90000000030B44FF0013C50F8F6
:100EC000042B51F8043BCCFA52F4D51A20D1FCB9CA
:100ED00050F8042B51F8043BCCFA52F4D51A17D130
:100EE000B4B950F8042B51F8043BCCFA52F4D51A9B
:100EF0000ED16CB950F8042B51F8043BCCFA52F4E3
:100F0000D51A05D1002CDAD030BC4FF00000704764
:100F100029BAB1FA81F111F01801D1F12000844011
:100F2000F2D1CA40CB4012F0FF0213F0FF0330BCF5
:100F3000D01A704701491820ABBEFEE72600020018
:100F400070470000FEE700007047000070B581B0F8
:100F50000022009290F83C20012A03D10221084689
:100F600001B070BD0E6801220A2E80F83C2009D322
:100F7000B2B25200D0F800E012FA86F21E3A0EF138
:100F80000C0305E0D0F800E006EB46020EF110037A
:100F90004FF0070C1D680CFA02F4A5431D608D6824
:100FA0001C6805FA02F222431A60496806290FD824
:100FB00001EB81014A1F71461F2351F8345F9340B2
:100FC00025EA03030B60B3B203FA02F214E000BF98
:100FD00001EB81030C29B2B204D8714651F8304FAD
:100FE000233B03E0714651F82C4F413B1F259D40A8
:100FF00024EA05059A400D600B6842F2043CC4F2F5
:10100000010C1A43ACF541739E450A603BD1122E88
:1010100006D1DCF8001041F48001CCF8001032E079
:1010200026F0010110292ED1DCF80010102E41F419
:101030000001CCF8001026D140F20801C2F20001F4
:1010400009684DF68362C4F21B32A1FB0212910CB7
:1010500001EB8101490000910099A1B1009901398A
:101060000091009979B1009901390091009951B12D
:10107000009901390091009929B100990139009135
:1010800000990029EAD1002180F83C10084601B0FF
:1010900070BD00000068C06C70470000002804BFED
:1010A0000120704710B50446006C00283ED0206C2B
:1010B000C00645D4206C41F202118843023042F24E
:1010C00004312064C4F20101086820F44030086053
:1010D0000A6894E809101A43D4F810E00A604168DD
:1010E000012321F4807141604168C0F6007341EA38
:1010F0000E214160416821F040714160416841EA40
:101100000C014160816821F400618160E1688268BE
:1011100011438160A16A8268994222F07062826004
:10112000826813D122F0405119E000BF204600F040
:1011300065F80020606484F83C00206CC006B9D5D6
:101140000120002184F83C1010BD00BF11438160D4
:10115000816821F040518160E16A826811438160B9
:10116000816821F0020181608168227E94F820303C
:1011700041EA42018160416883B141F4006141600C
:1011800041684EF2000221F460414160616ACFF68D
:10119000FF72436802EB4131194301E021F4006121
:1011A0004160C16A40F2000C21F47001C162E26941
:1011B0006169CFF6F07CC36A0CEB02521A43C2623B
:1011C000826822F40072826094F83020836843EAD7
:1011D00042228260826822F480628260826842EAEF
:1011E0008121816000206064216C012262F3010191
:1011F0002164002184F83C1010BD000080B586B049
:1012000042F200010068C4F2010100228842059206
:10121000049201D006B080BD43F630000092C4F2C3
:101220000200436943F480734361436903F48073AC
:101230000093009B0092036843F001030360006881
:1012400000F0010000900098012001900320CDE9FA
:10125000020201F5604001A900F01EF906B080BD50
:1012600070B5044600680D468268520544BF806828
:101270005FEAC05038D400F0EDF921680A6892079F
:1012800049D40646681C3CD0DDB90868800721D5E2
:10129000086880073FD4086880071BD50868800766
:1012A00039D40868800715D50868800733D40868E2
:1012B00080070FD508688007E7D52CE0086880070D
:1012C00029D400F0C7F9801B2168A842F6D9086824
:1012D0008007F3D4206C40F004002064002084F8E0
:1012E0003C00032070BD00BF206C40F02000206453
:1012F000002084F83C00012070BD00BF0868800712
:1013000009D40868800706D4086880075CBF0868AD
:101310005FEA8070F2D56FF012000860206C40F434
:1013200000702064886810F0405F01D0002070BD1C
:10133000207E0028FAD1C86A10F4700F02D08868A5
:101340004005F3D4206C20F480702064206CC0042D
:10135000ECD4206C40F001002064002070BD00003F
:1013600010B581B00021009190F83C10012903D103
:10137000022001B010BD00BF0468012180F83C10BC
:10138000214651F8083FDB0729D10B684DF68362EF
:1013900043F001030B6040F20803C2F200031B6834
:1013A000C4F21B32A3FB02239A0C02EB420200920E
:1013B000009AA2B1009A013A0092009A7AB1009A7A
:1013C000013A0092009A52B1009A013A0092009AB2
:1013D0002AB1009A013A0092009A002AEAD10A68DA
:1013E000036CD2070CD143F01001016400F14401F9
:1013F00001200A6810430860002001B010BD00BF42
:1014000040F2017223EA020202F58072026462680D
:10141000520504D5026C012363F30D320264026CA1
:101420004FF0000C0023D20444BF426C22F00603AC
:1014300042F2000E436480F83CC06FF02200C4F218
:10144000010E2060DEF80403C00609D074450BD1FC
:10145000DEF8080010F0405F06D14FF08040C8E78A
:10146000086810F0405FF8D0002001B010BD000007
:10147000B0B5044600F0EEF8054640F20000C2F2B6
:1014800000000078611C18BF044400BF00F0E2F8BF
:10149000401BA042FAD3B0BD2DE9F04F82B000F15D
:1014A0003E4707F1FF77860546EA972741F2000697
:1014B000C4F20206072243F6004EB04208BF0422DF
:1014C000C4F2010E042F38BF3A46002600274FF021
:1014D0000008009209E000BF08F101080237B8F1E6
:1014E000100F06F1040600F0A3800D68012202FA35
:1014F00008F415EA0409EFD0D1F804B003220BF088
:10150000030CACF10105BA40012D6FEA020A0FD8B5
:101510008268CD6802EA0A02BD402A4382604268BE
:10152000A243CBF3001404FA08F42243426005E01E
:10153000BCF1030F02D14FF0030C1EE0C2688C68AF
:1015400002EA0A02BC402243BCF1020FC26014D17D
:101550006FF0030202EA58020244D2F820C006F0FB
:101560001C040F230D69A3402CEA0303A5402B4361
:101570001362D1F804B00BF0030C02680CFA07F305
:1015800002EA0A021A431BF4403F0260A4D0002280
:1015900043F644030192C4F202031A684FF6084C62
:1015A00042F480421A601A68CFF6FF7C02F480424F
:1015B0000192019A28F00302724452F80C3006F0AE
:1015C0000C050F24AC40A343009C04FA05F52B4303
:1015D00042F80C30DEF808204B6842EA090543F671
:1015E0000C4CDC0258BF22EA0905CEF80850C4F2C0
:1015F000010CDCF800209C0242EA090558BF22EAEF
:101600000905CCF80050DEF804209C0342EA0905E5
:1016100058BF22EA0905CEF80450DEF80020DB03AB
:1016200042EA090558BF22EA0905CEF8005053E7FF
:1016300002B0BDE8F08F0000426902EA0103914365
:1016400041EA034181617047002A08BF09048161B2
:101650007047000040F20010C2F2000000687047BE
:1016600040F2000040F20011C2F20000C2F200019C
:1016700000780A68104408607047000080B543F69F
:101680000040C4F20200016841F400710160016889
:1016900041F480610160016841F4807101600320C0
:1016A00000F074F80F2000F005F800F027F8002093
:1016B00080BD000070B540F20006C2F2000640F2A4
:1016C00008013278C2F200014FF47A730968B3FB63
:1016D000F2F20446B1FBF2F1084600F08FF80F2C4D
:1016E0004FF0010508D838B94FF0FF3021460022ED
:1016F000002500F01FF87460284670BD82B00020FD
:1017000043F640010190C4F202014A6842F480426B
:101710004A604A6802F480420192019A0090086887
:1017200040F080500860086800F0805000900098F9
:1017300002B0704710B54EF60C5CCEF2000CDCF82F
:101740000030C3F3022E8EF00704042C28BF0424BB
:10175000BEF103034FF0FF3E0EFA04F438BF00233E
:10176000A14399400EFA03F39A43114300F00F028C
:1017700000F160430901043A03F564436244002820
:1017800048BF02F10C03197010BD00004EF60C5159
:10179000CEF200010A684FF6FF031A4060F30A22F6
:1017A00042F0806040F0FD700860704740F2080031
:1017B00043F60801C2F20000C4F2020100680968A1
:1017C00043F2E842C1F38221C0F60002515CC840F6
:1017D0007047000040F2080043F60801C2F2000022
:1017E000C4F202010068096843F2E842C1F34231E1
:1017F000C0F60002515CC84070470000411E002046
:10180000B0EB116F1CBF012070474EF21002CEF2F8
:10181000000251604EF62351CEF20001F0230B700E
:101820000721906011607047002804BF01207047B5
:1018300010B5044690F8410028B9002084F8400013
:10184000204600F021F8242084F841002068C16877
:1018500021F40051C160204600F02EFA2068016991
:1018600021F490410161416921F02A014161C1687F
:1018700041F40051C16000202021606484F84110CF
:1018800084F84210606310BD016844F20040C4F265
:101890000000814218BF704780B586B0002143F632
:1018A00030020191C4F20202136900F5DE3043F404
:1018B00000331361136903F400330193019B019119
:1018C000136843F001031360126802F001020192F1
:1018D000019A0C2201920222CDE9022103210491F6
:1018E0000721059101A9FFF7D7FD06B0BDE88040AB
:1018F000704700002DE9F04381B0044690F84200A3
:10190000202825D1884600294FF0010000F0FA80F8
:101910001746002A00F0F680002022211D46606450
:1019200084F842102063FFF795FEA785E785A1683C
:101930000746B1F5805F02D12069002854D04646A1
:101940004FF00008E08D002852D005F101090FE0AA
:10195000022001B0BDE8F083406800266FF35F20ED
:1019600028F8020BE08D0138E085E08D00283FD09B
:1019700020680168890617D4B9F1000F22D0002D24
:1019800000F0C480FFF766FEC01BA84200F2B680DC
:101990002068C168490744BF01685FEA017129D422
:1019A00001688906EED500BF002ED5D0A168B1F53B
:1019B000805F15D009B9216991B1406800F07F00BE
:1019C0000FE000BF01688906EED4016889065CBF9C
:1019D00001685FEA8161E7D401688906F2D5E3E72F
:1019E000406806F8010BBDE70026E08D0028ACD169
:1019F000002084E00021009101680091406800907F
:101A0000009800BF206850E8030F216820F4907010
:101A100041E80302BAB3206850E8030F216820F4BC
:101A2000907041E8030272B3206850E8030F216808
:101A300020F4907041E803022AB3206850E8030FB5
:101A4000216820F4907041E80302002ADAD11AE0FC
:101A5000206850E8050F216820F0010041E80502E8
:101A6000DAB1206850E8050F216820F0010041E854
:101A7000050292B1206850E8050F216820F00100AE
:101A800041E805024AB1206850E8050F216820F0BE
:101A9000010041E80502002ADAD1206B012824D197
:101AA000206850E8030F216820F0100041E803028D
:101AB000DAB1206850E8030F216820F0100041E8F7
:101AC000030292B1206850E8030F216820F0100053
:101AD00041E803024AB1206850E8030F216820F072
:101AE000100041E80302002ADAD1202084F84200E5
:101AF000002008212063616484F840000320202135
:101B000084F8421001B0BDE8F08300BFFFF7A2FDEA
:101B1000F4E700002DE9F041044690F84100202848
:101B20001CBF0220BDE8F0810D4600294FF00100E6
:101B300000F0AA801646002A08BFBDE8F081002008
:101B400060642120984684F84100FFF783FDA68455
:101B5000E684A1680646B1F5805F02D120690028BD
:101B600062D02F460025E08C002861D018F10100DA
:101B700018D0B8F1000F37D1216808E017F8010B31
:101B80004860E08C0138E084E08C002851D008687F
:101B9000000673D5002FF1D135F8020B00276FF343
:101BA0005F20EDE7216802E00868000609D40868B4
:101BB000000606D4086800065CBF08685FEA00609B
:101BC000F2D51FB117F8010B05E000BF35F8020B85
:101BD00000276FF35F204860E08C0138E084E08CE0
:101BE0000028E4D125E000BF216800BF0868000696
:101BF00008D4FFF72FFD801B404541D82168C868F5
:101C0000F4E700BF17B117F8010B04E035F8020B39
:101C100000276FF35F204860E08C0138E084E08C9F
:101C20000028E3D105E000BF0027E08C00289DD10B
:101C30002168086840061FD4B8F1000F1ED018F1C3
:101C400001000FD10868400616D40868400613D476
:101C50000868400610D4086840064FF00000F1D52F
:101C60000FE000BFFFF7F6FC801B404508D8206856
:101C7000C16800684006F5D5002002E0FFF7EAFCE5
:101C80000320202184F84110BDE8F081FEE7000028
:101C9000FEE70000FEE7000070470000704700000C
:101CA000FFF7DEBC4EF68850CEF20000016841F42A
:101CB000700101607047000010B504460068D4E967
:101CC00002C22369016921F4405111430161626933
:101CD00043EA0C01E3691143C268194349F20C63FA
:101CE0009A431143C1604169A26921F4407141F2F4
:101CF0000043114340F48062C4F201039A424161FF
:101D000002D1FFF767FD01E0FFF750FDE16963686D
:101D10001922B1F5004FA0FB020123D15A00DB0FBD
:101D2000FEF7D4FA48F21F51C5F2EB11A0FB0123D4
:101D30005A094FF69C73C0F6FF7303F1805302FB00
:101D40000300322303EBC000A0FB01014FF4F87045
:101D500000EA111000EB0210C1F34211084421689F
:101D6000886010BD9A009B0FFEF7B0FA48F21F5131
:101D7000C5F2EB11A0FB01235A094FF69C73C0F684
:101D8000FF7302FB0300322303EB0010A0FB0101F1
:101D9000F02000EA511000EB0210C1F34311084497
:101DA0002168886010BD0000FEE700000000000010
:101DB000AEB00026C4F20206FFF760FC002743F62F
:101DC000300019970897C4F202000168002241F020
:101DD00001010160006842F2100100F0010008906A
:101DE00008983046FFF730FC102015AC15900125FF
:101DF00030462146CDE916571897FFF74DFB4FF4B3
:101E0000005015A9A1C1304621461897FFF744FBA1
:101E100040F2B800A6F5DE31C2F200000C234FF408
:101E2000165280E88600C0E90377C0E90537C7612C
:101E3000FFF7FAFC50B100BF30464FF40051FFF7F6
:101E4000FBFBFA20FFF714FBF6E700BF40F270043B
:101E5000A6F56040C2F200040121C0F60071C4E999
:101E6000000720461897277684F82070C4E90A17DF
:101E7000E56184F83070C4E90277C4E90475FFF7BE
:101E80000DF915A92046CDE915751797FFF75EF8EE
:101E900040F2B809C2F200090FF2B46148461422B8
:101EA0004FF0FF33FFF736FE43F28451C0F60001D6
:101EB00048465F224FF0FF33FFF72CFE9FED8C8BDF
:101EC0009FED8D9B9FED8EAB43F2F45B0DF11F0AEE
:101ED00008AF4FF00708C0F6000B00203546264635
:101EE000002406900DE000BF3046FFF739FA304677
:101EF0004FF0FF31FFF7B4F900284FF0010400F074
:101F0000FD81059458E000BF48460FF25C61202235
:101F10004FF0FF33FFF7FEFD43F2E5514846C0F6B0
:101F200000010B224FF0FF33FFF7F4FD044630466B
:101F3000FFF716FA30464FF0FF31CA46B146FFF7B9
:101F40008FF900285E4600F0DF800025C4F202050C
:101F5000284610210122FFF777FB6420FFF788FA5B
:101F6000284610210022FFF76FFB5B4643F2F15732
:101F7000002CC0F6000708BF3B46049815AC43F29E
:101F80003E52019020466421C0F60002009602975E
:101F9000FEF728FA2046FEF799FB82B2504621460A
:101FA0004FF0FF33FFF7B6FD059C4E46D1460DF1CD
:101FB0001F0A08AF012C97D04846514601226423DE
:101FC000FFF798FC0028F5D14846514601224FF012
:101FD000FF33FFF79FFD9DF81F003038042853D8CA
:101FE000DFE810F0A802080022006A00060000BF27
:101FF0008AE700BF43F216514846C0F6000113229B
:102000004FF0FF33FFF786FD284610210122FFF72E
:102010001BFB4FF4FA70FFF72BFA28461021002221
:10202000FFF712FB60E700BF3046FFF799F9304633
:102030004FF0FF31FFF714F90028BBD13046FFF70E
:1020400029F801F053F853EC182B00F0F5FE53EC8F
:10205000192B01F05FF853EC1A2B01F05BF800F03C
:10206000B9FE01F055F9CDE903103846FEF72EFB15
:10207000B346002852D0012852D100210023C007C6
:1020800040F0C680F6E000BF43F22A514846C0F651
:10209000000114224FF0FF33FFF73CFD28464FF4B8
:1020A00000510122FFF7D0FA4FF4FA70FFF7E0F980
:1020B00028464FF400511CE1069858B948460FF2E3
:1020C000E44115224FF0FF33FFF724FD0120069075
:1020D00070E700BF48460FF2B44116224FF0FF33BD
:1020E000FFF718FD0020069064E700BF00BF00BFA7
:1020F0000000000000FEAF4000000000000014409F
:1021000000000000000059404846FEF7C3FF43F2BC
:10211000F156C0F60006049017E700BF0023A9E0BF
:1021200020F00101494200236FF00102BD18AC7894
:10213000ED7863405CB25E00002C48BF88EA43063D
:1021400073B27400002B48BF88EA460463B266008D
:10215000002B48BF88EA440673B27400002B48BFC6
:1021600088EA460463B26600002B48BF88EA44064A
:1021700073B27400002B48BF88EA460463B266005D
:10218000002B48BF88EA440673B27400002B48BF96
:1021900088EA460485EA04035EB25D00002E48BF6B
:1021A00088EA43056BB26E00002B48BF88EA4506FB
:1021B00073B27500002B48BF88EA46056BB26E000B
:1021C000002B48BF88EA450673B27500002B48BF54
:1021D00088EA46056BB26E00002B48BF88EA4506C8
:1021E00073B27500002B48BF88EA46056EB2023212
:1021F0006B00002E01EB020648BF88EA4503023659
:1022000094D10025059C911CC4F20205C00731D071
:10221000785C584041B24200002948BF88EA400239
:1022200050B25100002848BF88EA420148B24A0033
:10223000002848BF88EA410250B25100002848BF38
:1022400088EA420148B24A00002848BF88EA4102B1
:1022500050B25100002848BF88EA420148B24A0003
:10226000002848BF88EA410250B25300002848BF06
:1022700088EA4203DEB243F2F041DDE90332384638
:10228000C0F600010096FEF799F806985E4643F204
:10229000F45BC0F6000BB8B19DF8200050B10024EB
:1022A000385D80F0AA00385538460134FEF70EFA42
:1022B0008442F5D33846FEF709FA40F60D22059C14
:1022C00039183A52002088703846FEF7FFF982B27A
:1022D000484639464FF0FF33FFF71CFC28461021D3
:1022E0000122FFF7B1F94FF4FA60FFF7C1F8284671
:1022F00010210022FFF7A8F95CE600BF3046FEF788
:10230000C9FE00F0F3FE53EC182B00F095FD53ECE2
:10231000192B00F0FFFE53EC1A2B00F0FBFE00F02F
:1023200059FD00F0F5FF834638460C46FEF7CEF91E
:1023300030B1012806D100210023C00779D1AAE0DD
:102340000023A8E020F00101A446494200236FF0D9
:10235000010200BFBE18B478F57863405EB25C003D
:10236000002E48BF88EA430463B26600002B48BFD2
:1023700088EA440673B27400002B48BF88EA46041A
:1023800063B26600002B48BF88EA440673B274004B
:10239000002B48BF88EA460463B26600002B48BFA2
:1023A00088EA440673B27400002B48BF88EA4604EA
:1023B00063B26600002B48BF88EA440685EA06033C
:1023C0005EB25D00002E48BF88EA43056BB26E0026
:1023D000002B48BF88EA450673B27500002B48BF42
:1023E00088EA46056BB26E00002B48BF88EA4506B6
:1023F00073B27500002B48BF88EA46056BB26E00C9
:10240000002B48BF88EA450673B27500002B48BF11
:1024100088EA46056EB202326B00002E01EB02061E
:1024200048BF88EA4503023694D1911C6446C00730
:1024300031D0785C584041B24200002948BF88EA58
:10244000400250B25100002848BF88EA420148B219
:102450004A00002848BF88EA410250B251000028D3
:1024600048BF88EA420148B24A00002848BF88EACB
:10247000410250B25100002848BF88EA420148B2E8
:102480004A00002848BF88EA410250B253000028A1
:1024900048BF88EA420343F2F241DEB23846C0F652
:1024A00000015A4623460096FDF788FF069843F23E
:1024B000F45BC0F6000BB0B19DF8200050B10024D1
:1024C000385D80F0AA00385538460134FEF7FEF832
:1024D0008442F5D33846FEF7F9F840F60D22391854
:1024E0003A52002088703846FEF7F0F882B248462B
:1024F00039464FF0FF33FFF70DFB01204FF4FA652B
:10250000102405900026C4F202063046214601221E
:10251000FFF79AF828463546FEF7AAFF30462146CF
:102520000022FFF791F840F27006059CC2F2000607
:10253000E7E400BF484621A11C224FF0FF33FFF71C
:10254000E9FA002005904FF4FA754FF40054D9E7EA
:1025500053797374656D20496E697469616C697A29
:1025600065640D0A000000000D0A537461727469FD
:102570006E672053656C662D446961676E6F737476
:102580006963732E2E2E0D0A000000000D0A456EA1
:1025900063727970746564204D6F6465204F4646A0
:1025A0000D0A00000D0A456E63727970746564202F
:1025B0004D6F6465204F4E0D0A0000000D0A5374E4
:1025C0006F7070656420646973706C6179696E679F
:1025D00020646174610D0A005FEA400C08BF91F04D
:1025E000000F4FEA8C234FEAC12243EA51514FEAD0
:1025F0001C5018BF00F5F0404FEA300018BF41F002
:1026000000415FEA6C5C00F02980BCF1FF3F08BF2D
:1026100040F080407047130C06BF12044FF0100CBE
:102620004FF0000C130E04BF12020CF1080C130F34
:1026300004BF12010CF1040C930F04BF92000CF1C3
:10264000020CD30F04BF52000CF1010C11464FF0E5
:102650000002A0F11F00A0EB0C00704711F0004F2A
:1026600008BF704731F000413FF4D5AF0B0C06BFF7
:1026700009044FF0100C4FF0000C0B0E04BF0902C0
:102680000CF1080C0B0F04BF09010CF1040C8B0FAB
:1026900004BF89000CF1020CCB0F04BF49000CF100
:1026A000010CCCF1200322FA03F341EA030102FA00
:1026B0000CF2A0EB0C0000F10100704723F07F4703
:1026C00020F07F4C80EA030000F00040ACEB0703F1
:1026D00003F57C5303F1FF032DE9804909B44FEA68
:1026E000144324EA03484FEA154B25EA0B4E0FF238
:1026F000042606EB13273E7803FB0667C7F50007A1
:1027000007FB06F64FEAD64606F102064FEA5437B3
:1027100007FB066CCCF1005C4FEA1C472CEA074C27
:102720000CFB06F507FB06F404EB15464FEA96167C
:1027300049085FEA320234BF00204FF000404FEA00
:10274000D13706FB07FC4FEA1C4C0CFB0BF7D21BE6
:1027500003FB0CF761EB07010CFB0EF7B0EB074036
:1027600072EB17420CFB08F734BFA2EB0742B2EB47
:10277000074261EB17414FEA0C444FEA910706FB11
:1027800007FC4FEA1C4C0CFB0BF7B0EBC74072EB9D
:10279000573203FB0CF734BFA2EBC742B2EBC74280
:1027A00061EB57310CFB0EF7B0EBC70072EB5772C1
:1027B0000CFB08F734BFA2EBC702B2EBC70261EB18
:1027C00057714FEA816141EA92114FEA826242EA0F
:1027D00090124FEA806004EBCC04039F4FEAD1379C
:1027E00006FB07FC4FEA1C4C0CFB0BF7D21B03FB50
:1027F0000CF761EB07010CFB0EF7B0EB074072EB37
:1028000017420CFB08F734BFA2EB0742B2EB0742BA
:1028100061EB17414FEA8C5504EB9C244FEA91077A
:1028200006FB07FC4FEA1C4C0CFB0BF7B0EBC74058
:1028300072EB573203FB0CF734BFA2EBC742B2EB8B
:10284000C74261EB57310CFB0EF7B0EBC70072EBE0
:1028500057720CFB08F734BFA2EBC702B2EBC702FA
:1028600061EB57714FEA816141EA92114FEA82624E
:1028700042EA90124FEA806015EB4C2544F10004C7
:102880004FEAD13706FB07FC4FEA1C4C0CFB0BF759
:10289000D21B03FB0CF761EB07010CFB0EF7B0EB4F
:1028A000074072EB17420CFB08F734BFA2EB07425C
:1028B000B2EB074261EB17414FEA813141EA9241A5
:1028C0004FEA823242EA90424FEA80304FEA0C7679
:1028D00015EB1C1544F1000448EA03434EEA0B488B
:1028E0004FF0000EB2EB080C71EB030724BF6246F9
:1028F00039464EEB0E0E4FF0000B00185241494185
:102900004BEB0B0BB2EB080C71EB03077BF1000BED
:1029100024BF624639464EEB0E0E4FF0000B0018F6
:10292000524149414BEB0B0BB2EB080C71EB030727
:102930007BF1000B24BF624639464EEB0E0E51EA86
:10294000020718BF46F0010616EB0E7655F100029D
:1029500054F1000103D5BDE88901BDE80088BDE858
:102960008901BDE80048B619524141EB0101A3F1CC
:102970000103704780807F7E7D7C7B7A79787776D3
:1029800076757473727171706F6E6E6D6C6C6B6A4C
:102990006A696868676666656464636362616160EA
:1029A000605F5F5E5E5D5D5C5C5B5B5A5A59595867
:1029B00058575756565555555454535352525251D1
:1029C000515050504F4F4F4E4E4D4D4D4C4C4C4B27
:1029D0004B4B4A4A4A49494948484847474747466E
:1029E00046464545454444444443434343424242AA
:1029F000424141419C46002B30D477002BD04FEA16
:102A000037071CB503B44FF010004FF01001BAF1B6
:102A1000000F06D0BCF1000FDCBF40F0080040F012
:102A200008014FF000000FBCBDE810400BF1010B96
:102A3000BBF1010F08BF5FEA170722BF12F10102C5
:102A400011F101014FF0004143F1000300F000409B
:102A500043EA00007047F9D35708D0E746EA064634
:102A60004FEA164613F1400F1FDD13F1200FDFBFB1
:102A700016430A46002120335B42BED0C3F1200733
:102A800046EA06464FEA164602FA07F746EA0706FE
:102A900022FA03F2C3F1200701FA07F742EA07021C
:102AA00021FA03F14FF00003A7E746EA020646EADF
:102AB00006464FEA164646EA0106BCBF46EA064607
:102AC000360C4FF000034FF000024FF0000194E786
:102AD0002DE9804C70B49A46934691E8380007C8B7
:102AE00031EA400C48BF34EA430C03D5FFF7E6FD5A
:102AF000FFF780FFF0BCBDE8008C2DE9804C70B47E
:102B00009A46934691E8380007C810F0804F08BFF6
:102B100013F0804F03D100F005F8FFF76BFFF0BC16
:102B2000BDE8008C20F07F4723F07F4C80EA030053
:102B300000F0004007EB0C03A3F57C53A3F1FE0368
:102B400092F0000F00F0B38095F0000F00F0778056
:102B50002DE901494FEA114021EA00484FEA1446A5
:102B600024EA064700FB06FC08FB06F607FB08F80C
:102B700018EB06484CEB164C00FB07F718EB074820
:102B80004CEB17404FEA124B22EA0B4E4FEA154628
:102B900025EA06470BFB06FC0EFB06F607FB0EFEBE
:102BA0001EEB064E4CEB164C0BFB07F71EEB074ECD
:102BB0004CEB174B18EB0B0840F1000018EB0E0B19
:102BC00058EB000840F100008F1A4FF000014FF061
:102BD00000063CBFC943661B14BFB5EB040C0021C3
:102BE0003CBFC943F61B4FEA174427EA04454FEAA6
:102BF0001C472CEA074C04FB076205FB07F70CFB9C
:102C000005F616EB074642EB174204FB0CFC16EBED
:102C10000C4642EB1C421BEB060658EB02024141FC
:102C20004EEA8E0E46EA9E0601D5BDE80189B61928
:102C3000524141EB0101A3F10103BDE801894FEAD3
:102C4000144524EA05464FEA114721EA074C05FBE3
:102C500007F406FB07F70CFB06F111EB074144EB09
:102C6000174405FB0CFC11EB0C4144EB1C444FEAF0
:102C7000124722EA074C05FB07F206FB07F70CFB9D
:102C800006F616EB074642EB174205FB0CFC16EB6B
:102C90000C4642EB1C456A1854F1000148BF7047CE
:102CA000B619524141EB0101A3F10103704795F0C0
:102CB000000F37D04FEA114221EA02464FEA14478B
:102CC00024EA074C02FB07F106FB07F70CFB06F4AE
:102CD00014EB074441EB174102FB0CFC14EB0C44D2
:102CE00041EB1C414FEA154725EA074C02FB07F56B
:102CF00006FB07F70CFB06F616EB074645EB1745F8
:102D000002FB0CFC16EB0C4645EB1C42121951F170
:102D1000000148BF7047B619524141EB0101A3F1D0
:102D2000010370474FEA144524EA05464FEA11476C
:102D300021EA074C05FB07F106FB07F70CFB06F23F
:102D400012EB074241EB174105FB0CFC12EB0C4266
:102D500051EB1C414FF0000648BF7047921841EB01
:102D60000101A3F10103704703B4019841000098E9
:102D700050EAC12018BF04204A0D18BF40F00100DE
:102D800040F2FF72B2EB515F08BF40F00200012831
:102D900008BF052002B0704730380A2801D2012050
:102DA000704700207047000010B500290AD008784D
:102DB000002807D005487844FEF77EF8002801D0A7
:102DC000002010BD0248784410BD000066080000D5
:102DD0005E08000021F0004201F00043A2F16052C1
:102DE000B2F5801F28BFD2F17F6C0BD95FEA001CBF
:102DF00043EAC20242EB507018BF704728BF20F070
:102E000001007047B2F5801FBCBF184670474FEAFB
:102E1000410C1CF5001F02D2084600F0F7BA70B54D
:102E200000F022FA00000089FFF7F6BF4FF00040E3
:102E3000A0F58000704700002DE9C04130B4DFF8F4
:102E4000A4C23CEA111418BF3CEA131400F0ED8050
:102E50001CEA111481EA030544EAD57418BF1CEA80
:102E6000131500F0C880A4EB050404F17F7404F589
:102E700000344FF0004545EAC12145EAC32341EA49
:102E8000505143EA52534FEAC0204FEAC2229942BE
:102E900008BF904200F09D804FEA13650FF2441680
:102EA000765D4FEA134506FB05F7C7F1807706FB11
:102EB00007F74FEAD737A7FB03687642A7FB06CE92
:102EC000C8F5803838BFA8F1010807FB08E6A6FB63
:102ED000028C4FF0000EE6FB03CEDCF1000CCEF1CD
:102EE000004E38BFAEF1010EA6FB0C584FF00007A4
:102EF000E6FB0E87A1FB08C6A0FB07CE16EB0E066D
:102F00004FF0000545F10005E1FB076515F1E04EC6
:102F10007EBFA4F580345FEA46066D4116F1800756
:102F200045F100054FEA172747EA05674FEA1525DF
:102F30004FEA0666A6F1DE46B6F1805F20D9384634
:102F400005EBC47124F0010C01EB0C11BCF1FE6F18
:102F500002D8F0BCBDE8008124425CBF01F5801EB0
:102F60009EEAC47F02D4F0BCBDE80081244200F197
:102F70003980A1F1C041F0BCBDE8004100F0C2B908
:102F80004FEAD02040EA41504FEAD1214FEAD22205
:102F900042EA43524FEAD323A7FB028607FB0366AC
:102FA00005FB02661EEA0E0F58BFA6EB0056B6EBF5
:102FB00000564FEA520E4EEAC37E18EB0E0E56EB49
:102FC000530EBCD518EB02085E417F1C55F100057D
:102FD000B5E74FF480154FF000074FF000064FF0B3
:102FE0000008ACE701F1C04101F000414FF00000E2
:102FF000F0BCBDE800810CEA131511EA0C1F00D0EB
:103000000CE013EA0C1F00F026804FF0000081EA6C
:10301000030101F00041F0BCBDE80081F0BCBDE857
:10302000004181EA030100F06DB9F0BCBDE8004148
:1030300070B500F019F900BF097EFC3E00F007B83A
:103040004FF0000081EA030101F00041704781EA7E
:10305000030100F057B9F0BCBDE8004122494FF030
:1030600000007047FFFDFBF9F7F5F4F2F0EEEDEB31
:10307000E9E8E6E4E3E1E0DEDDDBDAD8D7D5D4D376
:10308000D1D0CFCDCCCBCAC8C7C6C5C4C2C1C0BFC2
:10309000BEBDBCBBBAB9B8B7B6B5B4B3B2B1B0AFC8
:1030A000AEADACABAAA9A8A8A7A6A5A4A3A3A2A1AC
:1030B000A09F9F9E9D9C9C9B9A9999989797969567
:1030C00095949393929191908F8F8E8E8D8C8C8B03
:1030D0008B8A89898888878786858584848383828B
:1030E000828181800000FF070000F87FB0FA80F342
:1030F00010FA03F10AD0C3F11D0303F580634FEA10
:1031000003524FEA415002EBD12170474FF00000CB
:103110007047000070B5DFF848C11CEA111E1EBFE1
:103120001CEA13159EEA0C0F95EA0C0F00F06F8055
:1031300081EA03044EEAD47EAE4421EA4C1123EA2C
:103140004C1341F4801143F48013AEF17F7EA1FB58
:10315000024CA0FB0365361955EB0C05A1FB034C93
:103160004CF10003A0FB021C16EB0C06654153F169
:103170000003094218BF46F0010613F4007F0BD18B
:103180004FEA03314FEA053041EA155140EA165043
:1031900034036FF003020AE04FEAC3214FEAC5206F
:1031A00041EA555140EA5650F4026FF0020202EB38
:1031B0002E4201EB025585EACE710AD05FEA440C3B
:1031C00018BF24F0004450F1000041F1000120EA52
:1031D000D47040F2FE7C624500D270BDA84214BF9C
:1031E0004FF080444FF04044002E08BF0024BEF151
:1031F000806FA8BFA1F1C041BDE8704080F282801D
:1032000001F1C04101F000414FF0000070470CEAAD
:1032100013159EEA0C0F18BF95EA0C0F06D081EA31
:10322000030E4FF000000EF0004170BD00F01CF8DE
:103230008900013E00F007B800F009B84FEA430CDE
:103240005FEA5C5C08D081EA030100F05BB84FEAFA
:10325000410C5FEA5C5CF6D102494FF00000704718
:103260000000FF070000F87F0EF1020E2EF0030EA3
:103270005EF8046B364205D4012A43EB030515F5CD
:10328000001F12D8012841EB010C1CF5001F0CD8BF
:103290000ED14FEAD17C0CEB4C0C0CF1020C15F565
:1032A000001F08BF4CEBD37C04E04FF0080C01E09A
:1032B0004FEAD37C0CEB4C0526FA05F606F0070620
:1032C000B6F1040C06D20EEB860CBDE870404CF053
:1032D000010C6047DFE80CF0090B02024FF00041DF
:1032E000A1F500214FF0000070BD194610460128DD
:1032F00051EB010418BFD4F5001484BF002001F085
:10330000004170BD0808A0F500114FEA3101704777
:1033100043004FEAD30C4FEA3C0C43401FBF400729
:103320000CF1605113F0FE4F70471CF0006F03D199
:103330000CF00041002070470CF0004343EA50704D
:1033400040EACC0010B500F00EF800BF000000927B
:103350004FEA0001FFF7D6BF4FF00041A1F5002171
:103360004FF0000070470EF1020E2EF0030E5EF8D3
:10337000044B244204D44FEA4102B2F17F4F11D8EA
:103380004FEA4003B3F17F4F0CD80ED14FEAD07C07
:103390000CEB4C0C0CF1020CB2F17F4F08BF4CEB64
:1033A000D17C04E04FF0080C01E04FEAD17C0CEB3B
:1033B0004C0324FA03F404F00704B4F1040C06D21D
:1033C0000EEB840CBDE810404CF0010C6047DFE8C8
:1033D0000CF0070802024FF00040A0F5800010BD7D
:1033E0000846420018BFD2F1807288BF00F000404A
:1033F00010BDF1EE100A4FF6FF71C0F2C03120EAA5
:10340000010040F04070E1EE100A7047FF2141EAF0
:10341000D050C0057047FDF7ACBA30313233343587
:103420003637383941424344454640305800303100
:10343000323334353637383961626364656640301B
:1034400078000400000800000000000000020001F5
:103450000000100002400000000000A0000000007A
:1034600005400000000000C8000000000C40000003
:103470000000409C00000000194000000020BCBE7D
:103480000000000034400000BFC91B8E0000000493
:10349000B5400000504BCFD06607E2CF01000000DE
:1034A0006C4100003E8251AADFEEA734010000000B
:1034B000D9420000DCB5A0E23A301F97FFFFFFFFC2
:1034C000B4450000FD25A0C8E9A3C14FFFFFFFFFE1
:1034D000FF3F00000000008000000000FF3F0000F0
:1034E0000000008000000000000000000102030452
:1034F0000D0A54656D70657261747572653A2025A8
:103500002E326620646567432C204352433A2025BF
:103510003032580D0A000D0A446973706C61796984
:103520006E6720646174610D0A000D0A496E766150
:103530006C696420436F6D6D616E640D0A004469AF
:1035400061676E6F7374696373205265706F727414
:103550003A0D0A554152543A2025730D0A4144430D
:103560003A202573202853616D706C652056616C7C
:1035700075653A202575290D0A4750494F3A20258F
:10358000730D0A00436F6D6D616E64733A0D0A2707
:103590003127203D2053746172740D0A2730272093
:1035A0003D2053746F700D0A273227203D2053743D
:1035B000617475730D0A273327203D20456E6372B1
:1035C0007970746564204D6F64650D0A2734272077
:1035D0003D2053656C662D446961676E6F73746935
:1035E00063730D0A005541525420546573740D0ADB
:1035F000004F4B004552524F520000003836000831
:103600000000002010000000F80100084836000803
:1036100010000020F8060000180200081C0000003E
:1036200043000000F8FFFFFF0C0000000E00000048
:103630000F0000002E00000001000000100000003C
:083640000024F400000000006A
:040000050800019559
:00000001FF
